{
  "_format": "hh3-artifact-1",
  "contractName": "CrashGame",
  "sourceName": "contracts/CrashGame.sol",
  "abi": [
    {
      "inputs": [
        {
          "internalType": "address",
          "name": "_entropyAddress",
          "type": "address"
        },
        {
          "internalType": "address",
          "name": "_operator",
          "type": "address"
        },
        {
          "internalType": "address",
          "name": "_tokenAddress",
          "type": "address"
        }
      ],
      "stateMutability": "nonpayable",
      "type": "constructor"
    },
    {
      "anonymous": false,
      "inputs": [
        {
          "indexed": true,
          "internalType": "uint256",
          "name": "roundId",
          "type": "uint256"
        },
        {
          "indexed": true,
          "internalType": "address",
          "name": "user",
          "type": "address"
        },
        {
          "indexed": false,
          "internalType": "uint256",
          "name": "amount",
          "type": "uint256"
        }
      ],
      "name": "BetPlaced",
      "type": "event"
    },
    {
      "anonymous": false,
      "inputs": [
        {
          "indexed": true,
          "internalType": "address",
          "name": "user",
          "type": "address"
        },
        {
          "indexed": false,
          "internalType": "uint256",
          "name": "amount",
          "type": "uint256"
        }
      ],
      "name": "Deposit",
      "type": "event"
    },
    {
      "anonymous": false,
      "inputs": [
        {
          "indexed": true,
          "internalType": "address",
          "name": "user",
          "type": "address"
        },
        {
          "indexed": false,
          "internalType": "uint256",
          "name": "amount",
          "type": "uint256"
        }
      ],
      "name": "PayoutClaimed",
      "type": "event"
    },
    {
      "anonymous": false,
      "inputs": [
        {
          "indexed": true,
          "internalType": "uint256",
          "name": "roundId",
          "type": "uint256"
        },
        {
          "indexed": false,
          "internalType": "uint256",
          "name": "entropyRandom",
          "type": "uint256"
        }
      ],
      "name": "RandomReady",
      "type": "event"
    },
    {
      "anonymous": false,
      "inputs": [
        {
          "indexed": true,
          "internalType": "uint256",
          "name": "roundId",
          "type": "uint256"
        },
        {
          "indexed": false,
          "internalType": "uint64",
          "name": "sequenceNumber",
          "type": "uint64"
        }
      ],
      "name": "RandomRequested",
      "type": "event"
    },
    {
      "anonymous": false,
      "inputs": [
        {
          "indexed": true,
          "internalType": "uint256",
          "name": "roundId",
          "type": "uint256"
        },
        {
          "indexed": false,
          "internalType": "bytes32",
          "name": "serverSeedHash",
          "type": "bytes32"
        }
      ],
      "name": "RoundCreated",
      "type": "event"
    },
    {
      "anonymous": false,
      "inputs": [
        {
          "indexed": true,
          "internalType": "uint256",
          "name": "roundId",
          "type": "uint256"
        },
        {
          "indexed": false,
          "internalType": "uint256",
          "name": "finalMultiplier",
          "type": "uint256"
        }
      ],
      "name": "RoundSettled",
      "type": "event"
    },
    {
      "anonymous": false,
      "inputs": [
        {
          "indexed": true,
          "internalType": "uint256",
          "name": "roundId",
          "type": "uint256"
        },
        {
          "indexed": false,
          "internalType": "bytes",
          "name": "serverSeed",
          "type": "bytes"
        }
      ],
      "name": "ServerSeedRevealed",
      "type": "event"
    },
    {
      "inputs": [
        {
          "internalType": "uint64",
          "name": "sequence",
          "type": "uint64"
        },
        {
          "internalType": "address",
          "name": "provider",
          "type": "address"
        },
        {
          "internalType": "bytes32",
          "name": "randomNumber",
          "type": "bytes32"
        }
      ],
      "name": "_entropyCallback",
      "outputs": [],
      "stateMutability": "nonpayable",
      "type": "function"
    },
    {
      "inputs": [
        {
          "internalType": "address",
          "name": "",
          "type": "address"
        }
      ],
      "name": "balances",
      "outputs": [
        {
          "internalType": "uint256",
          "name": "",
          "type": "uint256"
        }
      ],
      "stateMutability": "view",
      "type": "function"
    },
    {
      "inputs": [
        {
          "internalType": "uint256",
          "name": "",
          "type": "uint256"
        },
        {
          "internalType": "address",
          "name": "",
          "type": "address"
        }
      ],
      "name": "bets",
      "outputs": [
        {
          "internalType": "uint256",
          "name": "amount",
          "type": "uint256"
        },
        {
          "internalType": "uint256",
          "name": "cashOutMultiplier",
          "type": "uint256"
        },
        {
          "internalType": "bool",
          "name": "settled",
          "type": "bool"
        }
      ],
      "stateMutability": "view",
      "type": "function"
    },
    {
      "inputs": [],
      "name": "claimAllPayouts",
      "outputs": [],
      "stateMutability": "nonpayable",
      "type": "function"
    },
    {
      "inputs": [
        {
          "internalType": "address",
          "name": "",
          "type": "address"
        }
      ],
      "name": "claimablePayouts",
      "outputs": [
        {
          "internalType": "uint256",
          "name": "",
          "type": "uint256"
        }
      ],
      "stateMutability": "view",
      "type": "function"
    },
    {
      "inputs": [
        {
          "internalType": "bytes32",
          "name": "serverSeedHash",
          "type": "bytes32"
        }
      ],
      "name": "createRound",
      "outputs": [
        {
          "internalType": "uint256",
          "name": "",
          "type": "uint256"
        }
      ],
      "stateMutability": "nonpayable",
      "type": "function"
    },
    {
      "inputs": [
        {
          "internalType": "uint256",
          "name": "amount",
          "type": "uint256"
        }
      ],
      "name": "deposit",
      "outputs": [],
      "stateMutability": "nonpayable",
      "type": "function"
    },
    {
      "inputs": [],
      "name": "entropy",
      "outputs": [
        {
          "internalType": "contract IEntropyV2",
          "name": "",
          "type": "address"
        }
      ],
      "stateMutability": "view",
      "type": "function"
    },
    {
      "inputs": [
        {
          "internalType": "uint256",
          "name": "roundId",
          "type": "uint256"
        },
        {
          "internalType": "address",
          "name": "user",
          "type": "address"
        }
      ],
      "name": "getBet",
      "outputs": [
        {
          "internalType": "uint256",
          "name": "amount",
          "type": "uint256"
        },
        {
          "internalType": "uint256",
          "name": "cashOutMultiplier",
          "type": "uint256"
        },
        {
          "internalType": "bool",
          "name": "settled",
          "type": "bool"
        }
      ],
      "stateMutability": "view",
      "type": "function"
    },
    {
      "inputs": [
        {
          "internalType": "uint256",
          "name": "roundId",
          "type": "uint256"
        }
      ],
      "name": "getRound",
      "outputs": [
        {
          "internalType": "bytes32",
          "name": "serverSeedHash",
          "type": "bytes32"
        },
        {
          "internalType": "bytes",
          "name": "serverSeed",
          "type": "bytes"
        },
        {
          "internalType": "uint64",
          "name": "sequenceNumber",
          "type": "uint64"
        },
        {
          "internalType": "uint256",
          "name": "entropyRandom",
          "type": "uint256"
        },
        {
          "internalType": "enum CrashGame.RoundStatus",
          "name": "status",
          "type": "uint8"
        }
      ],
      "stateMutability": "view",
      "type": "function"
    },
    {
      "inputs": [
        {
          "internalType": "uint256",
          "name": "roundId",
          "type": "uint256"
        }
      ],
      "name": "isRandomReady",
      "outputs": [
        {
          "internalType": "bool",
          "name": "",
          "type": "bool"
        }
      ],
      "stateMutability": "view",
      "type": "function"
    },
    {
      "inputs": [],
      "name": "operator",
      "outputs": [
        {
          "internalType": "address",
          "name": "",
          "type": "address"
        }
      ],
      "stateMutability": "view",
      "type": "function"
    },
    {
      "inputs": [
        {
          "internalType": "uint256",
          "name": "roundId",
          "type": "uint256"
        },
        {
          "internalType": "uint256",
          "name": "amount",
          "type": "uint256"
        }
      ],
      "name": "placeBet",
      "outputs": [],
      "stateMutability": "nonpayable",
      "type": "function"
    },
    {
      "inputs": [
        {
          "internalType": "uint256",
          "name": "roundId",
          "type": "uint256"
        }
      ],
      "name": "requestRandomness",
      "outputs": [],
      "stateMutability": "payable",
      "type": "function"
    },
    {
      "inputs": [
        {
          "internalType": "uint256",
          "name": "roundId",
          "type": "uint256"
        },
        {
          "internalType": "bytes",
          "name": "serverSeed",
          "type": "bytes"
        }
      ],
      "name": "revealServerSeed",
      "outputs": [],
      "stateMutability": "nonpayable",
      "type": "function"
    },
    {
      "inputs": [],
      "name": "roundCounter",
      "outputs": [
        {
          "internalType": "uint256",
          "name": "",
          "type": "uint256"
        }
      ],
      "stateMutability": "view",
      "type": "function"
    },
    {
      "inputs": [
        {
          "internalType": "uint256",
          "name": "",
          "type": "uint256"
        }
      ],
      "name": "roundFinalMultipliers",
      "outputs": [
        {
          "internalType": "uint256",
          "name": "",
          "type": "uint256"
        }
      ],
      "stateMutability": "view",
      "type": "function"
    },
    {
      "inputs": [
        {
          "internalType": "uint256",
          "name": "",
          "type": "uint256"
        }
      ],
      "name": "roundSettled",
      "outputs": [
        {
          "internalType": "bool",
          "name": "",
          "type": "bool"
        }
      ],
      "stateMutability": "view",
      "type": "function"
    },
    {
      "inputs": [
        {
          "internalType": "uint256",
          "name": "",
          "type": "uint256"
        }
      ],
      "name": "rounds",
      "outputs": [
        {
          "internalType": "bytes32",
          "name": "serverSeedHash",
          "type": "bytes32"
        },
        {
          "internalType": "uint64",
          "name": "sequenceNumber",
          "type": "uint64"
        },
        {
          "internalType": "uint256",
          "name": "entropyRandom",
          "type": "uint256"
        },
        {
          "internalType": "enum CrashGame.RoundStatus",
          "name": "status",
          "type": "uint8"
        }
      ],
      "stateMutability": "view",
      "type": "function"
    },
    {
      "inputs": [
        {
          "internalType": "uint64",
          "name": "",
          "type": "uint64"
        }
      ],
      "name": "sequenceToRound",
      "outputs": [
        {
          "internalType": "uint256",
          "name": "",
          "type": "uint256"
        }
      ],
      "stateMutability": "view",
      "type": "function"
    },
    {
      "inputs": [
        {
          "internalType": "address",
          "name": "newOperator",
          "type": "address"
        }
      ],
      "name": "setOperator",
      "outputs": [],
      "stateMutability": "nonpayable",
      "type": "function"
    },
    {
      "inputs": [
        {
          "internalType": "uint256",
          "name": "roundId",
          "type": "uint256"
        },
        {
          "internalType": "uint256",
          "name": "finalMultiplier",
          "type": "uint256"
        },
        {
          "internalType": "bytes",
          "name": "serverSeed",
          "type": "bytes"
        },
        {
          "components": [
            {
              "internalType": "address",
              "name": "wallet",
              "type": "address"
            },
            {
              "internalType": "uint256",
              "name": "multiplier",
              "type": "uint256"
            }
          ],
          "internalType": "struct CrashGame.CashOut[]",
          "name": "cashOuts",
          "type": "tuple[]"
        }
      ],
      "name": "settleRound",
      "outputs": [],
      "stateMutability": "nonpayable",
      "type": "function"
    },
    {
      "inputs": [],
      "name": "token",
      "outputs": [
        {
          "internalType": "contract IERC20",
          "name": "",
          "type": "address"
        }
      ],
      "stateMutability": "view",
      "type": "function"
    }
  ],
  "bytecode": "0x60c060405234801561000f575f5ffd5b50604051611d23380380611d2383398101604081905261002e9161007c565b6001600160a01b03928316608052600380546001600160a01b031916928416929092179091551660a052600180556100bc565b80516001600160a01b0381168114610077575f5ffd5b919050565b5f5f5f6060848603121561008e575f5ffd5b61009784610061565b92506100a560208501610061565b91506100b360408501610061565b90509250925092565b60805160a051611c236101005f395f818161053d01528181610a4c01526115ae01525f81816101ef01528181610e090152818161100101526110d00152611c235ff3fe60806040526004361061013c575f3560e01c80638c65c81f116100b3578063e0950ddf1161006d578063e0950ddf14610429578063e3125ebb1461049a578063f0302107146104c5578063f644b3bb146104e4578063fc0c546a1461052c578063febc14b11461055f575f5ffd5b80638c65c81f146102e35780638f1327c0146103405780639e69ee751461038e578063b3ab15fb146103ad578063b6b55f25146103cc578063b7d34d8e146103eb575f5ffd5b80634afe62b5116101045780634afe62b51461022957806352a5f1f814610248578063570ca7351461026757806361613897146102865780637363ae1f146102b157806383208629146102c4575f5ffd5b806301dc16c6146101405780631a3c0cb614610161578063239e82081461019f57806327e235e3146101b357806347ce07cc146101de575b5f5ffd5b34801561014b575f5ffd5b5061015f61015a366004611851565b610574565b005b34801561016c575f5ffd5b5061018c61017b366004611901565b60076020525f908152604090205481565b6040519081526020015b60405180910390f35b3480156101aa575f5ffd5b5061015f6109c3565b3480156101be575f5ffd5b5061018c6101cd366004611933565b60046020525f908152604090205481565b3480156101e9575f5ffd5b506102117f000000000000000000000000000000000000000000000000000000000000000081565b6040516001600160a01b039091168152602001610196565b348015610234575f5ffd5b5061015f610243366004611953565b610b2d565b348015610253575f5ffd5b5061015f61026236600461198a565b610e07565b348015610272575f5ffd5b50600354610211906001600160a01b031681565b348015610291575f5ffd5b5061018c6102a03660046119c6565b60026020525f908152604090205481565b61015f6102bf366004611901565b610ef3565b3480156102cf575f5ffd5b5061018c6102de366004611901565b6112c8565b3480156102ee575f5ffd5b506103306102fd366004611901565b5f60208190529081526040902080546001820154600283015460039093015491926001600160401b039091169160ff1684565b60405161019694939291906119f5565b34801561034b575f5ffd5b5061033061035a366004611901565b5f90815260208190526040902080546001820154600283015460039093015491936001600160401b03909116929160ff1690565b348015610399575f5ffd5b5061015f6103a8366004611a3d565b6113a9565b3480156103b8575f5ffd5b5061015f6103c7366004611933565b6114d2565b3480156103d7575f5ffd5b5061015f6103e6366004611901565b61153d565b3480156103f6575f5ffd5b50610419610405366004611901565b60086020525f908152604090205460ff1681565b6040519015158152602001610196565b348015610434575f5ffd5b5061047d610443366004611a84565b5f9182526005602090815260408084206001600160a01b03939093168452919052902080546001820154600290920154909260ff90911690565b604080519384526020840192909252151590820152606001610196565b3480156104a5575f5ffd5b5061018c6104b4366004611933565b60066020525f908152604090205481565b3480156104d0575f5ffd5b506104196104df366004611901565b6116b3565b3480156104ef575f5ffd5b5061047d6104fe366004611a84565b600560209081525f928352604080842090915290825290208054600182015460029092015490919060ff1683565b348015610537575f5ffd5b506102117f000000000000000000000000000000000000000000000000000000000000000081565b34801561056a575f5ffd5b5061018c60015481565b6003546001600160a01b031633146105c25760405162461bcd60e51b815260206004820152600c60248201526b2737ba1037b832b930ba37b960a11b60448201526064015b60405180910390fd5b5f86815260208190526040902060038082015460ff16818111156105e8576105e86119e1565b146106355760405162461bcd60e51b815260206004820152601860248201527f5365727665722073656564206e6f742072657665616c6564000000000000000060448201526064016105b9565b5f8781526008602052604090205460ff161561068b5760405162461bcd60e51b8152602060048201526015602482015274149bdd5b9908185b1c9958591e481cd95d1d1b1959605a1b60448201526064016105b9565b670de0b6b3a76400008610156106e35760405162461bcd60e51b815260206004820152601860248201527f496e76616c69642066696e616c206d756c7469706c696572000000000000000060448201526064016105b9565b5f85856040516106f4929190611aae565b60405180910390209050815f0154811461074c5760405162461bcd60e51b81526020600482015260196024820152780a6cae4eccae440e6cacac840d0c2e6d040dad2e6dac2e8c6d603b1b60448201526064016105b9565b5f888152600860209081526040808320805460ff19166001179055600790915281208890555b8381101561097e575f85858381811061078d5761078d611abd565b6107a39260206040909202019081019150611933565b90505f8686848181106107b8576107b8611abd565b5f8e81526005602090815260408083206001600160a01b038916845282529182902080549390920294909401909301359350151590506108295760405162461bcd60e51b815260206004820152600c60248201526b139bc818995d08199bdd5b9960a21b60448201526064016105b9565b600281015460ff16156108705760405162461bcd60e51b815260206004820152600f60248201526e105b1c9958591e481cd95d1d1b1959608a1b60448201526064016105b9565b670de0b6b3a76400008210156108bd5760405162461bcd60e51b81526020600482015260126024820152714d756c7469706c69657220746f6f206c6f7760701b60448201526064016105b9565b8a8211156109035760405162461bcd60e51b815260206004820152601360248201527209aead8e8d2e0d8d2cae440e8dede40d0d2ced606b1b60448201526064016105b9565b5f670de0b6b3a764000083835f015461091c9190611ae5565b6109269190611b02565b600180840185905560028401805460ff191690911790556001600160a01b0385165f90815260066020526040812080549293508392909190610969908490611b21565b90915550506001909401935061077292505050565b50877f84ea2725ed7015ebac8f69258b09c394b1f22b1031d4393a1580b3935058d7dc886040516109b191815260200190565b60405180910390a25050505050505050565b335f9081526006602052604090205480610a155760405162461bcd60e51b81526020600482015260136024820152724e6f207061796f75747320746f20636c61696d60681b60448201526064016105b9565b335f81815260066020526040808220919091555163a9059cbb60e01b81526004810191909152602481018290526001600160a01b037f0000000000000000000000000000000000000000000000000000000000000000169063a9059cbb906044016020604051808303815f875af1158015610a92573d5f5f3e3d5ffd5b505050506040513d601f19601f82011682018060405250810190610ab69190611b34565b610af45760405162461bcd60e51b815260206004820152600f60248201526e151c985b9cd9995c8819985a5b1959608a1b60448201526064016105b9565b60405181815233907fec68461f5d4cc45c89e914cb8826a966c73dd35e5f97815ece0a01ffa4a025a6906020015b60405180910390a250565b5f8111610b7c5760405162461bcd60e51b815260206004820152601d60248201527f416d6f756e74206d7573742062652067726561746572207468616e203000000060448201526064016105b9565b335f90815260046020526040902054811115610bd15760405162461bcd60e51b8152602060048201526014602482015273496e73756666696369656e742062616c616e636560601b60448201526064016105b9565b5f8281526008602052604090205460ff1615610c275760405162461bcd60e51b8152602060048201526015602482015274149bdd5b9908185b1c9958591e481cd95d1d1b1959605a1b60448201526064016105b9565b5f82815260208190526040902054610c785760405162461bcd60e51b8152602060048201526014602482015273149bdd5b9908191bd95cc81b9bdd08195e1a5cdd60621b60448201526064016105b9565b5f8281526020819052604081209060038083015460ff1690811115610c9f57610c9f6119e1565b1480610cc35750600160038083015460ff1690811115610cc157610cc16119e1565b145b610d005760405162461bcd60e51b815260206004820152600e60248201526d10995d1d1a5b99c818db1bdcd95960921b60448201526064016105b9565b5f83815260056020908152604080832033845290915290205415610d5b5760405162461bcd60e51b8152602060048201526012602482015271105b1c9958591e481c1b1858d9590818995d60721b60448201526064016105b9565b335f9081526004602052604081208054849290610d79908490611b53565b9091555050604080516060810182528381525f60208083018281528385018381528884526005835285842033808652908452938690209451855590516001850155516002909301805460ff191693151593909317909255915184815285917f87b9df6fa7123c2e6044c3a3a37b4b0662c188d7a58ef86ee55067c46e4613ad910160405180910390a3505050565b7f00000000000000000000000000000000000000000000000000000000000000006001600160a01b038116610e7e5760405162461bcd60e51b815260206004820152601760248201527f456e74726f70792061646472657373206e6f742073657400000000000000000060448201526064016105b9565b336001600160a01b03821614610ee25760405162461bcd60e51b815260206004820152602360248201527f4f6e6c7920456e74726f70792063616e2063616c6c20746869732066756e637460448201526234b7b760e91b60648201526084016105b9565b610eed8484846116e3565b50505050565b5f8181526020819052604090208054610f455760405162461bcd60e51b8152602060048201526014602482015273149bdd5b9908191bd95cc81b9bdd08195e1a5cdd60621b60448201526064016105b9565b5f60038083015460ff1690811115610f5f57610f5f6119e1565b14610fa35760405162461bcd60e51b8152602060048201526014602482015273496e76616c696420726f756e642073746174757360601b60448201526064016105b9565b60018101546001600160401b031615610ffe5760405162461bcd60e51b815260206004820152601c60248201527f52616e646f6d6e65737320616c7265616479207265717565737465640000000060448201526064016105b9565b5f7f00000000000000000000000000000000000000000000000000000000000000006001600160a01b0316638204b67a6040518163ffffffff1660e01b8152600401602060405180830381865afa15801561105b573d5f5f3e3d5ffd5b505050506040513d601f19601f8201168201806040525081019061107f9190611b66565b6001600160801b03169050803410156110cd5760405162461bcd60e51b815260206004820152601060248201526f496e73756666696369656e742066656560801b60448201526064016105b9565b5f7f00000000000000000000000000000000000000000000000000000000000000006001600160a01b0316637b43155d836040518263ffffffff1660e01b815260040160206040518083038185885af115801561112c573d5f5f3e3d5ffd5b50505050506040513d601f19601f820116820180604052508101906111519190611b8c565b6001600160401b0381165f90815260026020526040902054909150156111b95760405162461bcd60e51b815260206004820152601c60248201527f53657175656e6365206e756d62657220616c726561647920757365640000000060448201526064016105b9565b6001600160401b0381165f818152600260209081526040918290208790556001868101805467ffffffffffffffff19168517905560038701805460ff19169091179055905191825285917f60fa432bd7e089e8d2ffb7c40075d20a4f03d2c9e5e8424243f6180e37978498910160405180910390a281341115610eed575f336112428434611b53565b6040515f81818185875af1925050503d805f811461127b576040519150601f19603f3d011682016040523d82523d5f602084013e611280565b606091505b50509050806112c15760405162461bcd60e51b815260206004820152600d60248201526c1499599d5b990819985a5b1959609a1b60448201526064016105b9565b5050505050565b600180545f91829190826112db83611ba7565b90915550604080516080810182528581525f60208083018281528385018381526060850184815287855292849052949092208351815591516001808401805467ffffffffffffffff19166001600160401b03909316929092179091559351600283015551600380830180549697509395929491939260ff191691908490811115611367576113676119e1565b0217905550506040518481528291507f3282f6001cc26871f1393e7c860b44698476ee7b296a72620efc75f8f50759d99060200160405180910390a292915050565b5f838152602081905260409020600260038083015460ff16908111156113d1576113d16119e1565b146114155760405162461bcd60e51b815260206004820152601460248201527352616e646f6d6e657373206e6f7420726561647960601b60448201526064016105b9565b5f8383604051611426929190611aae565b60405180910390209050815f0154811461147e5760405162461bcd60e51b81526020600482015260196024820152780a6cae4eccae440e6cacac840d0c2e6d040dad2e6dac2e8c6d603b1b60448201526064016105b9565b6003828101805460ff19166001830217905550847f788150e1db68a3df04fbafeb6d9ed276d0e0a85924e7c8042f40d6a79f21507385856040516114c3929190611bbf565b60405180910390a25050505050565b6003546001600160a01b0316331461151b5760405162461bcd60e51b815260206004820152600c60248201526b2737ba1037b832b930ba37b960a11b60448201526064016105b9565b600380546001600160a01b0319166001600160a01b0392909216919091179055565b5f811161158c5760405162461bcd60e51b815260206004820152601d60248201527f416d6f756e74206d7573742062652067726561746572207468616e203000000060448201526064016105b9565b6040516323b872dd60e01b8152336004820152306024820152604481018290527f00000000000000000000000000000000000000000000000000000000000000006001600160a01b0316906323b872dd906064016020604051808303815f875af11580156115fc573d5f5f3e3d5ffd5b505050506040513d601f19601f820116820180604052508101906116209190611b34565b61165e5760405162461bcd60e51b815260206004820152600f60248201526e151c985b9cd9995c8819985a5b1959608a1b60448201526064016105b9565b335f908152600460205260408120805483929061167c908490611b21565b909155505060405181815233907fe1fffcc4923d04b559f4d29a8bfc6cda04eb5b0d3c460751c2402c5c5cc9109c90602001610b22565b5f818152602081905260408120600260038083015460ff16908111156116db576116db6119e1565b149392505050565b6001600160401b0383165f908152600260205260408120549081900361174b5760405162461bcd60e51b815260206004820152601760248201527f556e6b6e6f776e2073657175656e6365206e756d62657200000000000000000060448201526064016105b9565b5f818152602081905260409020600160038083015460ff1690811115611773576117736119e1565b146117b75760405162461bcd60e51b8152602060048201526014602482015273496e76616c696420726f756e642073746174757360601b60448201526064016105b9565b600281810184905560038201805460ff19169091179055604051838152839083907fd0ecc71f8b5af397da9123fd2bff63c544c04af5c6935935a7f81e14b84522f29060200160405180910390a2505050505050565b5f5f83601f84011261181d575f5ffd5b5081356001600160401b03811115611833575f5ffd5b60208301915083602082850101111561184a575f5ffd5b9250929050565b5f5f5f5f5f5f60808789031215611866575f5ffd5b863595506020870135945060408701356001600160401b03811115611889575f5ffd5b61189589828a0161180d565b90955093505060608701356001600160401b038111156118b3575f5ffd5b8701601f810189136118c3575f5ffd5b80356001600160401b038111156118d8575f5ffd5b8960208260061b84010111156118ec575f5ffd5b60208201935080925050509295509295509295565b5f60208284031215611911575f5ffd5b5035919050565b80356001600160a01b038116811461192e575f5ffd5b919050565b5f60208284031215611943575f5ffd5b61194c82611918565b9392505050565b5f5f60408385031215611964575f5ffd5b50508035926020909101359150565b6001600160401b0381168114611987575f5ffd5b50565b5f5f5f6060848603121561199c575f5ffd5b83356119a781611973565b92506119b560208501611918565b929592945050506040919091013590565b5f602082840312156119d6575f5ffd5b813561194c81611973565b634e487b7160e01b5f52602160045260245ffd5b8481526001600160401b0384166020820152604081018390526080810160048310611a2e57634e487b7160e01b5f52602160045260245ffd5b82606083015295945050505050565b5f5f5f60408486031215611a4f575f5ffd5b8335925060208401356001600160401b03811115611a6b575f5ffd5b611a778682870161180d565b9497909650939450505050565b5f5f60408385031215611a95575f5ffd5b82359150611aa560208401611918565b90509250929050565b818382375f9101908152919050565b634e487b7160e01b5f52603260045260245ffd5b634e487b7160e01b5f52601160045260245ffd5b8082028115828204841417611afc57611afc611ad1565b92915050565b5f82611b1c57634e487b7160e01b5f52601260045260245ffd5b500490565b80820180821115611afc57611afc611ad1565b5f60208284031215611b44575f5ffd5b8151801515811461194c575f5ffd5b81810381811115611afc57611afc611ad1565b5f60208284031215611b76575f5ffd5b81516001600160801b038116811461194c575f5ffd5b5f60208284031215611b9c575f5ffd5b815161194c81611973565b5f60018201611bb857611bb8611ad1565b5060010190565b60208152816020820152818360408301375f818301604090810191909152601f909201601f1916010191905056fea264697066735822122062252e12b8d3294da66fbf906195072aff5562f13d225a797cf8a5d49abe23f264736f6c634300081c0033",
  "linkReferences": {},
  "deployedLinkReferences": {},
  "immutableReferences": {
    "566": [
      {
        "length": 32,
        "start": 495
      },
      {
        "length": 32,
        "start": 3593
      },
      {
        "length": 32,
        "start": 4097
      },
      {
        "length": 32,
        "start": 4304
      }
    ],
    "569": [
      {
        "length": 32,
        "start": 1341
      },
      {
        "length": 32,
        "start": 2636
      },
      {
        "length": 32,
        "start": 5550
      }
    ]
  },
  "inputSourceName": "project/contracts/CrashGame.sol",
  "buildInfoId": "solc-0_8_28-f55a883c8ff5b12974efed8f033780407e48182a"
}