{
  "_format": "hh3-artifact-1",
  "contractName": "MockChogToken",
  "sourceName": "contracts/MockChogToken.sol",
  "abi": [
    {
      "inputs": [
        {
          "internalType": "address",
          "name": "recipient",
          "type": "address"
        },
        {
          "internalType": "address",
          "name": "initialOwner",
          "type": "address"
        }
      ],
      "stateMutability": "nonpayable",
      "type": "constructor"
    },
    {
      "inputs": [],
      "name": "ECDSAInvalidSignature",
      "type": "error"
    },
    {
      "inputs": [
        {
          "internalType": "uint256",
          "name": "length",
          "type": "uint256"
        }
      ],
      "name": "ECDSAInvalidSignatureLength",
      "type": "error"
    },
    {
      "inputs": [
        {
          "internalType": "bytes32",
          "name": "s",
          "type": "bytes32"
        }
      ],
      "name": "ECDSAInvalidSignatureS",
      "type": "error"
    },
    {
      "inputs": [
        {
          "internalType": "address",
          "name": "spender",
          "type": "address"
        },
        {
          "internalType": "uint256",
          "name": "allowance",
          "type": "uint256"
        },
        {
          "internalType": "uint256",
          "name": "needed",
          "type": "uint256"
        }
      ],
      "name": "ERC20InsufficientAllowance",
      "type": "error"
    },
    {
      "inputs": [
        {
          "internalType": "address",
          "name": "sender",
          "type": "address"
        },
        {
          "internalType": "uint256",
          "name": "balance",
          "type": "uint256"
        },
        {
          "internalType": "uint256",
          "name": "needed",
          "type": "uint256"
        }
      ],
      "name": "ERC20InsufficientBalance",
      "type": "error"
    },
    {
      "inputs": [
        {
          "internalType": "address",
          "name": "approver",
          "type": "address"
        }
      ],
      "name": "ERC20InvalidApprover",
      "type": "error"
    },
    {
      "inputs": [
        {
          "internalType": "address",
          "name": "receiver",
          "type": "address"
        }
      ],
      "name": "ERC20InvalidReceiver",
      "type": "error"
    },
    {
      "inputs": [
        {
          "internalType": "address",
          "name": "sender",
          "type": "address"
        }
      ],
      "name": "ERC20InvalidSender",
      "type": "error"
    },
    {
      "inputs": [
        {
          "internalType": "address",
          "name": "spender",
          "type": "address"
        }
      ],
      "name": "ERC20InvalidSpender",
      "type": "error"
    },
    {
      "inputs": [
        {
          "internalType": "uint256",
          "name": "deadline",
          "type": "uint256"
        }
      ],
      "name": "ERC2612ExpiredSignature",
      "type": "error"
    },
    {
      "inputs": [
        {
          "internalType": "address",
          "name": "signer",
          "type": "address"
        },
        {
          "internalType": "address",
          "name": "owner",
          "type": "address"
        }
      ],
      "name": "ERC2612InvalidSigner",
      "type": "error"
    },
    {
      "inputs": [
        {
          "internalType": "address",
          "name": "account",
          "type": "address"
        },
        {
          "internalType": "uint256",
          "name": "currentNonce",
          "type": "uint256"
        }
      ],
      "name": "InvalidAccountNonce",
      "type": "error"
    },
    {
      "inputs": [],
      "name": "InvalidShortString",
      "type": "error"
    },
    {
      "inputs": [
        {
          "internalType": "address",
          "name": "owner",
          "type": "address"
        }
      ],
      "name": "OwnableInvalidOwner",
      "type": "error"
    },
    {
      "inputs": [
        {
          "internalType": "address",
          "name": "account",
          "type": "address"
        }
      ],
      "name": "OwnableUnauthorizedAccount",
      "type": "error"
    },
    {
      "inputs": [
        {
          "internalType": "string",
          "name": "str",
          "type": "string"
        }
      ],
      "name": "StringTooLong",
      "type": "error"
    },
    {
      "anonymous": false,
      "inputs": [
        {
          "indexed": true,
          "internalType": "address",
          "name": "owner",
          "type": "address"
        },
        {
          "indexed": true,
          "internalType": "address",
          "name": "spender",
          "type": "address"
        },
        {
          "indexed": false,
          "internalType": "uint256",
          "name": "value",
          "type": "uint256"
        }
      ],
      "name": "Approval",
      "type": "event"
    },
    {
      "anonymous": false,
      "inputs": [],
      "name": "EIP712DomainChanged",
      "type": "event"
    },
    {
      "anonymous": false,
      "inputs": [
        {
          "indexed": true,
          "internalType": "address",
          "name": "previousOwner",
          "type": "address"
        },
        {
          "indexed": true,
          "internalType": "address",
          "name": "newOwner",
          "type": "address"
        }
      ],
      "name": "OwnershipTransferred",
      "type": "event"
    },
    {
      "anonymous": false,
      "inputs": [
        {
          "indexed": true,
          "internalType": "address",
          "name": "from",
          "type": "address"
        },
        {
          "indexed": true,
          "internalType": "address",
          "name": "to",
          "type": "address"
        },
        {
          "indexed": false,
          "internalType": "uint256",
          "name": "value",
          "type": "uint256"
        }
      ],
      "name": "Transfer",
      "type": "event"
    },
    {
      "inputs": [],
      "name": "DOMAIN_SEPARATOR",
      "outputs": [
        {
          "internalType": "bytes32",
          "name": "",
          "type": "bytes32"
        }
      ],
      "stateMutability": "view",
      "type": "function"
    },
    {
      "inputs": [
        {
          "internalType": "address",
          "name": "owner",
          "type": "address"
        },
        {
          "internalType": "address",
          "name": "spender",
          "type": "address"
        }
      ],
      "name": "allowance",
      "outputs": [
        {
          "internalType": "uint256",
          "name": "",
          "type": "uint256"
        }
      ],
      "stateMutability": "view",
      "type": "function"
    },
    {
      "inputs": [
        {
          "internalType": "address",
          "name": "spender",
          "type": "address"
        },
        {
          "internalType": "uint256",
          "name": "value",
          "type": "uint256"
        }
      ],
      "name": "approve",
      "outputs": [
        {
          "internalType": "bool",
          "name": "",
          "type": "bool"
        }
      ],
      "stateMutability": "nonpayable",
      "type": "function"
    },
    {
      "inputs": [
        {
          "internalType": "address",
          "name": "account",
          "type": "address"
        }
      ],
      "name": "balanceOf",
      "outputs": [
        {
          "internalType": "uint256",
          "name": "",
          "type": "uint256"
        }
      ],
      "stateMutability": "view",
      "type": "function"
    },
    {
      "inputs": [
        {
          "internalType": "uint256",
          "name": "value",
          "type": "uint256"
        }
      ],
      "name": "burn",
      "outputs": [],
      "stateMutability": "nonpayable",
      "type": "function"
    },
    {
      "inputs": [
        {
          "internalType": "address",
          "name": "account",
          "type": "address"
        },
        {
          "internalType": "uint256",
          "name": "value",
          "type": "uint256"
        }
      ],
      "name": "burnFrom",
      "outputs": [],
      "stateMutability": "nonpayable",
      "type": "function"
    },
    {
      "inputs": [],
      "name": "claim",
      "outputs": [],
      "stateMutability": "nonpayable",
      "type": "function"
    },
    {
      "inputs": [],
      "name": "decimals",
      "outputs": [
        {
          "internalType": "uint8",
          "name": "",
          "type": "uint8"
        }
      ],
      "stateMutability": "view",
      "type": "function"
    },
    {
      "inputs": [],
      "name": "eip712Domain",
      "outputs": [
        {
          "internalType": "bytes1",
          "name": "fields",
          "type": "bytes1"
        },
        {
          "internalType": "string",
          "name": "name",
          "type": "string"
        },
        {
          "internalType": "string",
          "name": "version",
          "type": "string"
        },
        {
          "internalType": "uint256",
          "name": "chainId",
          "type": "uint256"
        },
        {
          "internalType": "address",
          "name": "verifyingContract",
          "type": "address"
        },
        {
          "internalType": "bytes32",
          "name": "salt",
          "type": "bytes32"
        },
        {
          "internalType": "uint256[]",
          "name": "extensions",
          "type": "uint256[]"
        }
      ],
      "stateMutability": "view",
      "type": "function"
    },
    {
      "inputs": [
        {
          "internalType": "address",
          "name": "to",
          "type": "address"
        },
        {
          "internalType": "uint256",
          "name": "amount",
          "type": "uint256"
        }
      ],
      "name": "mint",
      "outputs": [],
      "stateMutability": "nonpayable",
      "type": "function"
    },
    {
      "inputs": [],
      "name": "name",
      "outputs": [
        {
          "internalType": "string",
          "name": "",
          "type": "string"
        }
      ],
      "stateMutability": "view",
      "type": "function"
    },
    {
      "inputs": [
        {
          "internalType": "address",
          "name": "owner",
          "type": "address"
        }
      ],
      "name": "nonces",
      "outputs": [
        {
          "internalType": "uint256",
          "name": "",
          "type": "uint256"
        }
      ],
      "stateMutability": "view",
      "type": "function"
    },
    {
      "inputs": [],
      "name": "owner",
      "outputs": [
        {
          "internalType": "address",
          "name": "",
          "type": "address"
        }
      ],
      "stateMutability": "view",
      "type": "function"
    },
    {
      "inputs": [
        {
          "internalType": "address",
          "name": "owner",
          "type": "address"
        },
        {
          "internalType": "address",
          "name": "spender",
          "type": "address"
        },
        {
          "internalType": "uint256",
          "name": "value",
          "type": "uint256"
        },
        {
          "internalType": "uint256",
          "name": "deadline",
          "type": "uint256"
        },
        {
          "internalType": "uint8",
          "name": "v",
          "type": "uint8"
        },
        {
          "internalType": "bytes32",
          "name": "r",
          "type": "bytes32"
        },
        {
          "internalType": "bytes32",
          "name": "s",
          "type": "bytes32"
        }
      ],
      "name": "permit",
      "outputs": [],
      "stateMutability": "nonpayable",
      "type": "function"
    },
    {
      "inputs": [],
      "name": "renounceOwnership",
      "outputs": [],
      "stateMutability": "nonpayable",
      "type": "function"
    },
    {
      "inputs": [],
      "name": "symbol",
      "outputs": [
        {
          "internalType": "string",
          "name": "",
          "type": "string"
        }
      ],
      "stateMutability": "view",
      "type": "function"
    },
    {
      "inputs": [],
      "name": "totalSupply",
      "outputs": [
        {
          "internalType": "uint256",
          "name": "",
          "type": "uint256"
        }
      ],
      "stateMutability": "view",
      "type": "function"
    },
    {
      "inputs": [
        {
          "internalType": "address",
          "name": "to",
          "type": "address"
        },
        {
          "internalType": "uint256",
          "name": "value",
          "type": "uint256"
        }
      ],
      "name": "transfer",
      "outputs": [
        {
          "internalType": "bool",
          "name": "",
          "type": "bool"
        }
      ],
      "stateMutability": "nonpayable",
      "type": "function"
    },
    {
      "inputs": [
        {
          "internalType": "address",
          "name": "from",
          "type": "address"
        },
        {
          "internalType": "address",
          "name": "to",
          "type": "address"
        },
        {
          "internalType": "uint256",
          "name": "value",
          "type": "uint256"
        }
      ],
      "name": "transferFrom",
      "outputs": [
        {
          "internalType": "bool",
          "name": "",
          "type": "bool"
        }
      ],
      "stateMutability": "nonpayable",
      "type": "function"
    },
    {
      "inputs": [
        {
          "internalType": "address",
          "name": "newOwner",
          "type": "address"
        }
      ],
      "name": "transferOwnership",
      "outputs": [],
      "stateMutability": "nonpayable",
      "type": "function"
    }
  ],
  "bytecode": "0x610160604052348015610010575f5ffd5b506040516119a13803806119a183398101604081905261002f91610422565b6040518060400160405280600f81526020016e26b7b1b59021b437b3902a37b5b2b760891b81525080604051806040016040528060018152602001603160f81b815250836040518060400160405280600f81526020016e26b7b1b59021b437b3902a37b5b2b760891b815250604051806040016040528060058152602001646d43484f4760d81b81525081600390816100c891906104eb565b5060046100d582826104eb565b5050506001600160a01b03811661010657604051631e4fbdf760e01b81525f60048201526024015b60405180910390fd5b61010f816101e9565b5061011b82600661023a565b6101205261012a81600761023a565b61014052815160208084019190912060e052815190820120610100524660a0526101b660e05161010051604080517f8b73c3c69bb8fe3d512ecc4cf759cc79239f7b179b0ffacaa9a75d522b39400f60208201529081019290925260608201524660808201523060a08201525f9060c00160405160208183030381529060405280519060200120905090565b60805250503060c052506101e2826101d06012600a61069c565b6101dd90629896806106b1565b61026c565b5050610733565b600580546001600160a01b038381166001600160a01b0319831681179093556040519116919082907f8be0079c531659141344cd1fd0a4f28419497f9722a3daafe3b4186f6b6457e0905f90a35050565b5f6020835110156102555761024e836102a4565b9050610266565b8161026084826104eb565b5060ff90505b92915050565b6001600160a01b0382166102955760405163ec442f0560e01b81525f60048201526024016100fd565b6102a05f83836102e1565b5050565b5f5f829050601f815111156102ce578260405163305a27a960e01b81526004016100fd91906106c8565b80516102d9826106fd565b179392505050565b6001600160a01b03831661030b578060025f8282546103009190610720565b9091555061037b9050565b6001600160a01b0383165f908152602081905260409020548181101561035d5760405163391434e360e21b81526001600160a01b038516600482015260248101829052604481018390526064016100fd565b6001600160a01b0384165f9081526020819052604090209082900390555b6001600160a01b038216610397576002805482900390556103b5565b6001600160a01b0382165f9081526020819052604090208054820190555b816001600160a01b0316836001600160a01b03167fddf252ad1be2c89b69c2b068fc378daa952ba7f163c4a11628f55a4df523b3ef836040516103fa91815260200190565b60405180910390a3505050565b80516001600160a01b038116811461041d575f5ffd5b919050565b5f5f60408385031215610433575f5ffd5b61043c83610407565b915061044a60208401610407565b90509250929050565b634e487b7160e01b5f52604160045260245ffd5b600181811c9082168061047b57607f821691505b60208210810361049957634e487b7160e01b5f52602260045260245ffd5b50919050565b601f8211156104e657805f5260205f20601f840160051c810160208510156104c45750805b601f840160051c820191505b818110156104e3575f81556001016104d0565b50505b505050565b81516001600160401b0381111561050457610504610453565b610518816105128454610467565b8461049f565b6020601f82116001811461054a575f83156105335750848201515b5f19600385901b1c1916600184901b1784556104e3565b5f84815260208120601f198516915b828110156105795787850151825560209485019460019092019101610559565b508482101561059657868401515f19600387901b60f8161c191681555b50505050600190811b01905550565b634e487b7160e01b5f52601160045260245ffd5b6001815b60018411156105f4578085048111156105d8576105d86105a5565b60018416156105e657908102905b60019390931c9280026105bd565b935093915050565b5f8261060a57506001610266565b8161061657505f610266565b816001811461062c576002811461063657610652565b6001915050610266565b60ff841115610647576106476105a5565b50506001821b610266565b5060208310610133831016604e8410600b8410161715610675575081810a610266565b6106815f1984846105b9565b805f1904821115610694576106946105a5565b029392505050565b5f6106aa60ff8416836105fc565b9392505050565b8082028115828204841417610266576102666105a5565b602081525f82518060208401528060208501604085015e5f604082850101526040601f19601f83011684010191505092915050565b80516020808301519190811015610499575f1960209190910360031b1b16919050565b80820180821115610266576102666105a5565b60805160a05160c05160e05161010051610120516101405161121d6107845f395f61094101525f61091401525f6107d701525f6107af01525f61070a01525f61073401525f61075e015261121d5ff3fe608060405234801561000f575f5ffd5b5060043610610127575f3560e01c8063715018a6116100a957806395d89b411161006e57806395d89b4114610264578063a9059cbb1461026c578063d505accf1461027f578063dd62ed3e14610292578063f2fde38b146102ca575f5ffd5b8063715018a61461020057806379cc6790146102085780637ecebe001461021b57806384b0196e1461022e5780638da5cb5b14610249575f5ffd5b80633644e515116100ef5780633644e515146101a057806340c10f19146101a857806342966c68146101bd5780634e71d92d146101d057806370a08231146101d8575f5ffd5b806306fdde031461012b578063095ea7b31461014957806318160ddd1461016c57806323b872dd1461017e578063313ce56714610191575b5f5ffd5b6101336102dd565b6040516101409190610e72565b60405180910390f35b61015c610157366004610ea6565b61036d565b6040519015158152602001610140565b6002545b604051908152602001610140565b61015c61018c366004610ece565b610386565b60405160128152602001610140565b6101706103a9565b6101bb6101b6366004610ea6565b6103b7565b005b6101bb6101cb366004610f08565b6103cd565b6101bb6103da565b6101706101e6366004610f1f565b6001600160a01b03165f9081526020819052604090205490565b6101bb6103fd565b6101bb610216366004610ea6565b61040e565b610170610229366004610f1f565b610423565b610236610440565b6040516101409796959493929190610f38565b6005546040516001600160a01b039091168152602001610140565b610133610482565b61015c61027a366004610ea6565b610491565b6101bb61028d366004610fce565b61049e565b6101706102a036600461103b565b6001600160a01b039182165f90815260016020908152604080832093909416825291909152205490565b6101bb6102d8366004610f1f565b6105d9565b6060600380546102ec9061106c565b80601f01602080910402602001604051908101604052809291908181526020018280546103189061106c565b80156103635780601f1061033a57610100808354040283529160200191610363565b820191905f5260205f20905b81548152906001019060200180831161034657829003601f168201915b5050505050905090565b5f3361037a818585610613565b60019150505b92915050565b5f33610393858285610625565b61039e8585856106a1565b506001949350505050565b5f6103b26106fe565b905090565b6103bf610827565b6103c98282610854565b5050565b6103d73382610888565b50565b6103fb336103ea6012600a61119b565b6103f6906107d06111a9565b610854565b565b610405610827565b6103fb5f6108bc565b610419823383610625565b6103c98282610888565b6001600160a01b0381165f90815260086020526040812054610380565b5f6060805f5f5f606061045161090d565b61045961093a565b604080515f80825260208201909252600f60f81b9b939a50919850469750309650945092509050565b6060600480546102ec9061106c565b5f3361037a8185856106a1565b834211156104c75760405163313c898160e11b8152600481018590526024015b60405180910390fd5b5f7f6e71edae12b1b97f4d1f60370fef10105fa2faae0126114a169c64845d6126c98888886105128c6001600160a01b03165f90815260086020526040902080546001810190915590565b6040805160208101969096526001600160a01b0394851690860152929091166060840152608083015260a082015260c0810186905260e0016040516020818303038152906040528051906020012090505f61056c82610967565b90505f61057b82878787610993565b9050896001600160a01b0316816001600160a01b0316146105c2576040516325c0072360e11b81526001600160a01b0380831660048301528b1660248201526044016104be565b6105cd8a8a8a610613565b50505050505050505050565b6105e1610827565b6001600160a01b03811661060a57604051631e4fbdf760e01b81525f60048201526024016104be565b6103d7816108bc565b61062083838360016109bf565b505050565b6001600160a01b038381165f908152600160209081526040808320938616835292905220545f1981101561069b578181101561068d57604051637dc7a0d960e11b81526001600160a01b038416600482015260248101829052604481018390526064016104be565b61069b84848484035f6109bf565b50505050565b6001600160a01b0383166106ca57604051634b637e8f60e11b81525f60048201526024016104be565b6001600160a01b0382166106f35760405163ec442f0560e01b81525f60048201526024016104be565b610620838383610a91565b5f306001600160a01b037f00000000000000000000000000000000000000000000000000000000000000001614801561075657507f000000000000000000000000000000000000000000000000000000000000000046145b1561078057507f000000000000000000000000000000000000000000000000000000000000000090565b6103b2604080517f8b73c3c69bb8fe3d512ecc4cf759cc79239f7b179b0ffacaa9a75d522b39400f60208201527f0000000000000000000000000000000000000000000000000000000000000000918101919091527f000000000000000000000000000000000000000000000000000000000000000060608201524660808201523060a08201525f9060c00160405160208183030381529060405280519060200120905090565b6005546001600160a01b031633146103fb5760405163118cdaa760e01b81523360048201526024016104be565b6001600160a01b03821661087d5760405163ec442f0560e01b81525f60048201526024016104be565b6103c95f8383610a91565b6001600160a01b0382166108b157604051634b637e8f60e11b81525f60048201526024016104be565b6103c9825f83610a91565b600580546001600160a01b038381166001600160a01b0319831681179093556040519116919082907f8be0079c531659141344cd1fd0a4f28419497f9722a3daafe3b4186f6b6457e0905f90a35050565b60606103b27f00000000000000000000000000000000000000000000000000000000000000006006610bb7565b60606103b27f00000000000000000000000000000000000000000000000000000000000000006007610bb7565b5f6103806109736106fe565b8360405161190160f01b8152600281019290925260228201526042902090565b5f5f5f5f6109a388888888610c60565b9250925092506109b38282610d28565b50909695505050505050565b6001600160a01b0384166109e85760405163e602df0560e01b81525f60048201526024016104be565b6001600160a01b038316610a1157604051634a1406b160e11b81525f60048201526024016104be565b6001600160a01b038085165f908152600160209081526040808320938716835292905220829055801561069b57826001600160a01b0316846001600160a01b03167f8c5be1e5ebec7d5bd14f71427d1e84f3dd0314c0f7b2291e5b200ac8c7c3b92584604051610a8391815260200190565b60405180910390a350505050565b6001600160a01b038316610abb578060025f828254610ab091906111c0565b90915550610b2b9050565b6001600160a01b0383165f9081526020819052604090205481811015610b0d5760405163391434e360e21b81526001600160a01b038516600482015260248101829052604481018390526064016104be565b6001600160a01b0384165f9081526020819052604090209082900390555b6001600160a01b038216610b4757600280548290039055610b65565b6001600160a01b0382165f9081526020819052604090208054820190555b816001600160a01b0316836001600160a01b03167fddf252ad1be2c89b69c2b068fc378daa952ba7f163c4a11628f55a4df523b3ef83604051610baa91815260200190565b60405180910390a3505050565b606060ff8314610bd157610bca83610de0565b9050610380565b818054610bdd9061106c565b80601f0160208091040260200160405190810160405280929190818152602001828054610c099061106c565b8015610c545780601f10610c2b57610100808354040283529160200191610c54565b820191905f5260205f20905b815481529060010190602001808311610c3757829003601f168201915b50505050509050610380565b5f80807f7fffffffffffffffffffffffffffffff5d576e7357a4501ddfe92f46681b20a0841115610c9957505f91506003905082610d1e565b604080515f808252602082018084528a905260ff891692820192909252606081018790526080810186905260019060a0016020604051602081039080840390855afa158015610cea573d5f5f3e3d5ffd5b5050604051601f1901519150506001600160a01b038116610d1557505f925060019150829050610d1e565b92505f91508190505b9450945094915050565b5f826003811115610d3b57610d3b6111d3565b03610d44575050565b6001826003811115610d5857610d586111d3565b03610d765760405163f645eedf60e01b815260040160405180910390fd5b6002826003811115610d8a57610d8a6111d3565b03610dab5760405163fce698f760e01b8152600481018290526024016104be565b6003826003811115610dbf57610dbf6111d3565b036103c9576040516335e2f38360e21b8152600481018290526024016104be565b60605f610dec83610e1d565b6040805160208082528183019092529192505f91906020820181803683375050509182525060208101929092525090565b5f60ff8216601f81111561038057604051632cd44ac360e21b815260040160405180910390fd5b5f81518084528060208401602086015e5f602082860101526020601f19601f83011685010191505092915050565b602081525f610e846020830184610e44565b9392505050565b80356001600160a01b0381168114610ea1575f5ffd5b919050565b5f5f60408385031215610eb7575f5ffd5b610ec083610e8b565b946020939093013593505050565b5f5f5f60608486031215610ee0575f5ffd5b610ee984610e8b565b9250610ef760208501610e8b565b929592945050506040919091013590565b5f60208284031215610f18575f5ffd5b5035919050565b5f60208284031215610f2f575f5ffd5b610e8482610e8b565b60ff60f81b8816815260e060208201525f610f5660e0830189610e44565b8281036040840152610f688189610e44565b606084018890526001600160a01b038716608085015260a0840186905283810360c0850152845180825260208087019350909101905f5b81811015610fbd578351835260209384019390920191600101610f9f565b50909b9a5050505050505050505050565b5f5f5f5f5f5f5f60e0888a031215610fe4575f5ffd5b610fed88610e8b565b9650610ffb60208901610e8b565b95506040880135945060608801359350608088013560ff8116811461101e575f5ffd5b9699959850939692959460a0840135945060c09093013592915050565b5f5f6040838503121561104c575f5ffd5b61105583610e8b565b915061106360208401610e8b565b90509250929050565b600181811c9082168061108057607f821691505b60208210810361109e57634e487b7160e01b5f52602260045260245ffd5b50919050565b634e487b7160e01b5f52601160045260245ffd5b6001815b60018411156110f3578085048111156110d7576110d76110a4565b60018416156110e557908102905b60019390931c9280026110bc565b935093915050565b5f8261110957506001610380565b8161111557505f610380565b816001811461112b576002811461113557611151565b6001915050610380565b60ff841115611146576111466110a4565b50506001821b610380565b5060208310610133831016604e8410600b8410161715611174575081810a610380565b6111805f1984846110b8565b805f1904821115611193576111936110a4565b029392505050565b5f610e8460ff8416836110fb565b8082028115828204841417610380576103806110a4565b80820180821115610380576103806110a4565b634e487b7160e01b5f52602160045260245ffdfea26469706673582212202f741075b785bb3e9a381bd1682430e97f2ffc3395ccf73978ec860500a6ecbd64736f6c634300081c0033",
  "linkReferences": {},
  "deployedLinkReferences": {},
  "immutableReferences": {
    "3426": [
      {
        "length": 32,
        "start": 1886
      }
    ],
    "3428": [
      {
        "length": 32,
        "start": 1844
      }
    ],
    "3430": [
      {
        "length": 32,
        "start": 1802
      }
    ],
    "3432": [
      {
        "length": 32,
        "start": 1967
      }
    ],
    "3434": [
      {
        "length": 32,
        "start": 2007
      }
    ],
    "3437": [
      {
        "length": 32,
        "start": 2324
      }
    ],
    "3440": [
      {
        "length": 32,
        "start": 2369
      }
    ]
  },
  "inputSourceName": "project/contracts/MockChogToken.sol",
  "buildInfoId": "solc-0_8_28-ebf69d3b3bf478f4c32d01ee90def2808c06df49"
}